{
  "contractName": "Dogs",
  "abi": [
    {
      "constant": true,
      "inputs": [],
      "name": "_initialized",
      "outputs": [
        {
          "name": "",
          "type": "bool"
        }
      ],
      "payable": false,
      "stateMutability": "view",
      "type": "function"
    },
    {
      "constant": true,
      "inputs": [],
      "name": "owner",
      "outputs": [
        {
          "name": "",
          "type": "address"
        }
      ],
      "payable": false,
      "stateMutability": "view",
      "type": "function"
    },
    {
      "inputs": [],
      "payable": false,
      "stateMutability": "nonpayable",
      "type": "constructor"
    },
    {
      "constant": true,
      "inputs": [],
      "name": "getNumberOfDogs",
      "outputs": [
        {
          "name": "",
          "type": "uint256"
        }
      ],
      "payable": false,
      "stateMutability": "view",
      "type": "function"
    },
    {
      "constant": false,
      "inputs": [
        {
          "name": "toSet",
          "type": "uint256"
        }
      ],
      "name": "setNumberOfDogs",
      "outputs": [],
      "payable": false,
      "stateMutability": "nonpayable",
      "type": "function"
    }
  ],
  "bytecode": "0x608060405234801561001057600080fd5b5033600560006101000a81548173ffffffffffffffffffffffffffffffffffffffff021916908373ffffffffffffffffffffffffffffffffffffffff16021790555061023d806100616000396000f3fe60806040526004361061005c576000357c01000000000000000000000000000000000000000000000000000000009004806314861b22146100615780631680a5ed1461009c5780633072cf60146100c75780638da5cb5b146100f6575b600080fd5b34801561006d57600080fd5b5061009a6004803603602081101561008457600080fd5b810190808035906020019092919050505061014d565b005b3480156100a857600080fd5b506100b1610193565b6040518082815260200191505060405180910390f35b3480156100d357600080fd5b506100dc6101d8565b604051808215151515815260200191505060405180910390f35b34801561010257600080fd5b5061010b6101eb565b604051808273ffffffffffffffffffffffffffffffffffffffff1673ffffffffffffffffffffffffffffffffffffffff16815260200191505060405180910390f35b80600060405180807f446f677300000000000000000000000000000000000000000000000000000000815250600401905090815260200160405180910390208190555050565b60008060405180807f446f6773000000000000000000000000000000000000000000000000000000008152506004019050908152602001604051809103902054905090565b600560149054906101000a900460ff1681565b600560009054906101000a900473ffffffffffffffffffffffffffffffffffffffff168156fea165627a7a72305820bc47497f7e7279c28558c286a1102422fd801c579ed31fd12fd4b3b5fce7fc310029",
  "source": "pragma solidity 0.5.1;\n\nimport \"./Storage.sol\";\n\ncontract Dogs is Storage {\n\n    modifier onlyOwner() {\n        require(msg.sender == owner);\n        _;\n    }\n\n    constructor() public {\n        owner = msg.sender;\n    }\n    \n    function getNumberOfDogs() public view returns(uint256) {\n        return _uintStorage[\"Dogs\"];\n    }\n\n    function setNumberOfDogs(uint256 toSet) public {\n        _uintStorage[\"Dogs\"] = toSet;\n    }\n\n}",
  "sourcePath": "/Users/gin/Documents/projects/blockchain/upgradeable-contract/proxyContract/contracts/Dogs.sol",
  "compiler": {
    "name": "solc",
    "version": "0.5.1+commit.c8a2cb62.Emscripten.clang"
  },
  "schemaVersion": "3.4.1",
  "updatedAt": "2021-11-12T05:30:57.975Z",
  "networkType": "ethereum",
  "devdoc": {
    "methods": {}
  },
  "userdoc": {
    "methods": {}
  }
}